S0160000536C61766520636F64655F365F302E7372656334
S11300000C944D000C9457000C9457000C9457001A
S11300100C9457000C9457000C9457000C94570000
S11300200C9457000C9457000C9457000C945700F0
S11300300C9457000C9457000C9457000C945700E0
S11300400C9457000C9457000C9457000C945700D0
S11300500C94570077008A009D006A006A006A00C9
S11300606A006A006A006A006A006A006A006A003C
S11300706A006A00B000B500BA006A006A006A004B
S11300806A006A006A006A006A006A006A006A001C
S11300906A006A00BF00C400C90011241FBECFE576
S11300A0D8E0DEBFCDBF0E9459000C9420020C940E
S11300B000000E94120264E084E40E94CE0065E025
S11300C084E40E94CE0066E084E40E94CE00CFEF78
S11300D0D0E011E08FEF0E94150290E0FC017197CF
S11300E0E332F105B8F7E65DFF4F0C941A0264E0C1
S11300F084E40E94DA00882341F064E084E40E94EE
S1130100DA00813019F4C12F01C0CD2F8C2F0E9449
S11301101502E0CF65E084E40E94DA00882341F010
S113012065E084E40E94DA00813019F4C12F01C033
S1130130CD2F8C2F0E941502CDCF66E084E40E945F
S1130140DA00882341F066E084E40E94DA0081301A
S113015019F4C12F01C0CD2F8C2F0E941502BACFE4
S113016064E084E40E94D200B5CF65E084E40E9498
S1130170D200B0CF66E084E40E94D200ABCF64E04A
S113018084E40E94D600A6CF65E084E40E94D600F1
S1130190A1CF66E084E40E94D6009CCF41E00E9497
S11301A0DD00089541E00E944D01089540E00E9461
S11301B04D0108950E94BD010895823419F118F487
S11301C0813439F008958334B1F1843409F44CC096
S11301D00895413059F42AB381E090E002C0880FB9
S11301E0991F6A95E2F7822B8ABB08952AB381E0AE
S11301F090E002C0880F991F6A95E2F780958223E8
S11302008ABB0895413059F427B381E090E002C0DD
S1130210880F991F6A95E2F7822B87BB089527B34D
S113022081E090E002C0880F991F6A95E2F78095FB
S1130230822387BB0895413059F424B381E090E0D0
S113024002C0880F991F6A95E2F7822B84BB089538
S113025024B381E090E002C0880F991F6A95E2F709
S11302608095822384BB0895413059F421B381E001
S113027090E002C0880F991F6A95E2F7822B81BB38
S1130280089521B381E090E002C0880F991F6A9518
S1130290E2F78095822381BB0895823419F118F422
S11302A0813439F008958334B1F1843409F44CC0B5
S11302B00895413059F42BB381E090E002C0880FD7
S11302C0991F6A95E2F7822B8BBB08952BB381E0CB
S11302D090E002C0880F991F6A95E2F78095822307
S11302E08BBB0895413059F428B381E090E002C0FB
S11302F0880F991F6A95E2F7822B88BB089528B36B
S113030081E090E002C0880F991F6A95E2F780951A
S1130310822388BB0895413059F425B381E090E0ED
S113032002C0880F991F6A95E2F7822B85BB089556
S113033025B381E090E002C0880F991F6A95E2F727
S11303408095822385BB0895413059F422B381E01E
S113035090E002C0880F991F6A95E2F7822B82BB56
S1130360089522B381E090E002C0880F991F6A9536
S1130370E2F78095822382BB08958234D9F018F481
S1130380813431F04DC0833439F18434B9F148C03B
S113039029B381E090E0062E02C0880F991F0A94C9
S11303A0E2F730E08223932302C0959587956A95FE
S11303B0E2F7089526B381E090E0062E02C0880F8C
S11303C0991F0A94E2F730E08223932302C09595A3
S11303D087956A95E2F7089523B381E090E0062EAD
S11303E002C0880F991F0A94E2F730E08223932316
S11303F002C0959587956A95E2F7089520B381E048
S113040090E0062E02C0880F991F0A94E2F730E0AC
S11304108223932302C0959587956A95E2F7089500
S113042080E00895BE9A6E9A08958FB9779BFECFA7
S11304308FB10895EE0FFF1F0590F491E02D0994FC
S1070440F894FFCF5A
S9030000FC
