:100000000C942A000C9447000C9447000C94470071
:100010000C9447000C9447000C9447000C94470044
:100020000C9447000C9447000C946E020C9447000B
:100030000C9447000C9447000C9447000C94470024
:100040000C9447000C9447000C9447000C94470014
:100050000C94470011241FBECFE5D8E0DEBFCDBF12
:1000600011E0A0E6B0E0E8EEFDE002C005900D92E0
:10007000AE38B107D9F721E0AEE8B1E001C01D927A
:10008000A139B207E1F70E9449000C94F2060C94E2
:100090000000CF93DF93CDB7DEB728970FB6F89463
:1000A000DEBF0FBECDBF0E9428040E945F030E94E6
:1000B000C60680E091E00E947E06813009F472C09D
:1000C00080E790E00E94800461E082E00E94930457
:1000D0008AE790E00E9480042FEF39E688E1215002
:1000E00030408040E1F700C000000E948F0485E8A6
:1000F00090E00E94800461E082E00E94930484E921
:1001000090E00E9480048FEF89838A838B838C83A5
:10011000FE0131967F011CE00E949C038F3FE1F3BA
:10012000F70181937F010E947404FFEF22E537E01D
:10013000F15020403040E1F700C00000612F82E024
:100140000E9493048AE20E9474048FEF90E7E2E039
:1001500081509040E040E1F700C000001F5F103187
:10016000D9F644E050E0BE016F5F7F4F82E091E03E
:100170000E94A90661E080E091E00E949D060E9435
:100180008F0480EA90E00E948004FFEF24E33CE0CB
:10019000F15020403040E1F700C000000E948F0481
:1001A000912C05C08AE091E00E947E06982E00E026
:1001B0000F2EF2E38F2EF02DDD24D394AA24AA94DF
:1001C000BD2C80918E018130C1F40E94E80610920E
:1001D000900110928F0110928E010E948F048BEA81
:1001E00090E00E9480048FEF99E6E8E18150904012
:1001F000E040E1F700C0000002C00111F3C0C12CD3
:10020000F1E09F121FC00E948F048BEB90E00E94D0
:1002100080046D2D82E00E94930489EC90E00E949E
:1002200080042AEA36EE86E991E021503040804091
:100230009040D9F7000060E08AE091E00E949D06BE
:10024000C12C912C0E948F0489ED90E00E948004C3
:100250006D2D82E00E94930487EE90E00E9480045E
:100260000E949C038F3FE1F3803381F00E948F0452
:1002700080EF90E00E948004EFEFF9E628E1E15082
:10028000F0402040E1F700C00000BACFAD82AE825E
:10029000AF82A886A982AA82AB82AC82082D0C19F3
:1002A0000E948F048DEF90E00E9480046D2D82E00B
:1002B0000E94930488E091E00E9480043FEF81EE69
:1002C00094E0315080409040E1F700C000007E0192
:1002D000E5E0EE0EF11C1CE00E949C038F3FE1F371
:1002E000F70181937F010E947404FFEF22E537E05C
:1002F000F15020403040E1F700C00000612F82E063
:100300000E9493048AE20E9474048FEF90E7E2E077
:1003100081509040E040E1F700C000001F5F1031C5
:10032000D9F644E050E0BE016F5F7F4F82E091E07C
:100330000E94850644E0BE016F5F7F4FCE010596A7
:100340000E948502813011F50E948F0484E191E0C2
:100350000E9480046D2D82E00E9493048DEF90E056
:100360000E948004FFEF24E33CE0F1502040304045
:10037000E1F700C0000060E083E40E94A1040E9455
:10038000D2060E948F04C12C0D2D29C0C3940E9457
:100390008F048FE191E00E9480046D2D82E00E9425
:1003A00093048AE291E00E948004802F0E947404EA
:1003B0008FEF99E6E8E181509040E040E1F700C01E
:1003C00000000E948F040150F2E0FC1508F068CF95
:1003D0006D2D8AE091E00E949D069D2C00E0002397
:1003E00009F40ECFFD2C66C023E0F21609F451C0CB
:1003F0002F1520F031E0F31651F05EC094E0F916AD
:1004000009F44DC0E5E0FE1609F44FC055C00E9446
:100410008F0486E391E00E9480046B2D82E00E94AD
:100420009304013029F486E491E00E94800404C022
:100430008FE491E00E948004802F0E94A702182F71
:10044000FFEF20E732E0F15020403040E1F700C0FC
:1004500000008133A9F18233C1F18333D1F18F3FA1
:1004600091F00E948F048FE491E00E9480048FEF4E
:1004700094E3ECE081509040E040E1F700C00000E0
:1004800011531330B8F080918E01882309F4BFCF47
:1004900011C0602F83E00E94BD02FB2C0BC0602FB7
:1004A00084E00E94BD02FB2C05C0602F85E00E9405
:1004B000BD02FB2C80918E01813009F095CF81CE59
:1004C0000F2EF3E0FF2EF02DF5CF6894FF24F2F805
:1004D000F1CF0F2EF5E0FF2EF02DECCF1F920F92F3
:1004E0000FB60F9211248F939F9380918F0190915B
:1004F000900101969093900180938F019F918F912D
:100500000F900FBE0F901F9018954423D1F0FC015F
:100510003081FB012081321316C0FC013196DB01D2
:100520001196415050E04F5F5F4F480F591F04C074
:1005300021919D91291309C0E417F507C9F781E0BE
:10054000089581E0089580E0089580E00895CF93B4
:10055000C82F80918F01909190018031974238F09F
:10056000C13029F481E080938E018FEF04C00E9496
:100570009C038F3F71F3CF910895BF92CF92DF928A
:10058000EF92FF920F931F93CF93DF93D82FE62E16
:1005900000E0F12C10E00F2EF2E1BF2EF02D0F2E17
:1005A000F3E1CF2EF02D0F2EF1E1DF2EF02D0E9482
:1005B0008F04D43079F0D530C1F0D33001F58BE51C
:1005C00091E00E94800401E30F2EF1E2FF2EF02D56
:1005D0001D2D15C084E691E00E94800402E30F2ED9
:1005E000F2E2FF2EF02D1B2D0AC08DE691E00E9455
:1005F000800403E30F2EF3E2FF2EF02D1C2D812F3C
:100600000E94CD062FEF80E792E02150804090407D
:10061000E1F700C000008FEF0E94CD06813029F481
:1006200086E791E00E94800404C089E791E00E947F
:10063000800461E082E00E9493048DE791E00E94D3
:1006400080048E2D0E94A702C82F2FEF80E792E032
:10065000215080409040E1F700C00000C13321F4F8
:100660008F2D0E94CD0621C0C23321F4802F0E941D
:10067000CD061BC0CF3FA1F0C033B9F00E948F045C
:100680008FE491E00E9480042FEF84E39CE02150EE
:1006900080409040E1F700C00000C053C33028F014
:1006A00080918E01882309F482CFDF91CF911F9131
:1006B0000F91FF90EF90DF90CF90BF90089541E0B1
:1006C00060E084E40E94A50441E061E084E40E94CB
:1006D000A50441E062E084E40E94A50441E063E0F7
:1006E00084E40E94A50440E064E084E40E94A50440
:1006F00040E065E084E40E94A50440E066E084E414
:100700000E94A50440E067E084E40E94A50441E063
:1007100064E084E40E94ED0541E065E084E40E9429
:10072000ED0541E066E084E40E94ED0541E067E00C
:1007300084E40E94ED050895EF92FF920F931F93BA
:10074000CF93DF93CDB7DEB760970FB6F894DEBFD7
:100750000FBECDBF80E1E0E6F0E0DE011196019032
:100760000D928A95E1F7E12CF12C0FEF41E060E06A
:1007700084E40E94150541E061E084E40E941505CF
:1007800041E062E084E40E94150541E063E084E416
:100790000E9415058FE39CE90197F1F700C0000066
:1007A00040E06E2D84E40E94150510E064E0610FC6
:1007B00084E40E94850581110FC0F701EE0FFF1F31
:1007C000EE0FFF1F81E090E08C0F9D1FE80FF91FD7
:1007D000E10FF11D008103C01F5F143039F79FEF57
:1007E000E91AF90A84E0E816F10409F0BFCF802F76
:1007F00060960FB6F894DEBF0FBECDBFDF91CF91EC
:100800001F910F91FF90EF90089541E060E082E426
:100810000E9415058FE99FE00197F1F700C00000E5
:1008200040E060E082E40E9415058FE99FE00197B7
:10083000F1F700C000000895682F81E40E94DA05F6
:1008400040E061E082E40E9415050E9405040895DD
:1008500041E060E081E40E94A50441E061E081E4C0
:100860000E94A50441E062E081E40E94A50441E009
:1008700063E081E40E94A50441E064E081E40E9419
:10088000A50441E065E081E40E94A50441E066E042
:1008900081E40E94A50441E067E081E40E94A50490
:1008A00041E060E082E40E94A50441E062E082E46D
:1008B0000E94A50441E061E082E40E94A50440E0BA
:1008C00062E082E40E94150588E30E941C0481E036
:1008D0000E941C048EE00E941C048FE19EE401979C
:1008E000F1F700C000000895682F81E40E94DA0546
:1008F00041E061E082E40E9415050E94050408952C
:10090000CF93DF93EC018881882331F021960E94F8
:10091000740489918111FBCFDF91CF91089581E01B
:100920000E941C040895813019F48FE7860F06C0D9
:10093000823019F48FEB860F01C080E80E941C04FE
:10094000089541E00E9415050895823419F118F4C4
:10095000813439F008958334B1F1843409F44CC002
:100960000895413059F42AB381E090E002C0880F25
:10097000991F6A95E2F7822B8ABB08952AB381E01A
:1009800090E002C0880F991F6A95E2F78095822354
:100990008ABB0895413059F427B381E090E002C04A
:1009A000880F991F6A95E2F7822B87BB089527B3BA
:1009B00081E090E002C0880F991F6A95E2F7809568
:1009C000822387BB0895413059F424B381E090E03D
:1009D00002C0880F991F6A95E2F7822B84BB0895A5
:1009E00024B381E090E002C0880F991F6A95E2F776
:1009F0008095822384BB0895413059F421B381E06E
:100A000090E002C0880F991F6A95E2F7822B81BBA4
:100A1000089521B381E090E002C0880F991F6A9584
:100A2000E2F78095822381BB0895823419F118F48E
:100A3000813439F008958334B1F1843409F44CC021
:100A40000895413059F42BB381E090E002C0880F43
:100A5000991F6A95E2F7822B8BBB08952BB381E037
:100A600090E002C0880F991F6A95E2F78095822373
:100A70008BBB0895413059F428B381E090E002C067
:100A8000880F991F6A95E2F7822B88BB089528B3D7
:100A900081E090E002C0880F991F6A95E2F7809587
:100AA000822388BB0895413059F425B381E090E05A
:100AB00002C0880F991F6A95E2F7822B85BB0895C3
:100AC00025B381E090E002C0880F991F6A95E2F794
:100AD0008095822385BB0895413059F422B381E08B
:100AE00090E002C0880F991F6A95E2F7822B82BBC3
:100AF000089522B381E090E002C0880F991F6A95A3
:100B0000E2F78095822382BB08958234D9F018F4ED
:100B1000813431F04DC0833439F18434B9F148C0A7
:100B200029B381E090E0062E02C0880F991F0A9435
:100B3000E2F730E08223932302C0959587956A956A
:100B4000E2F7089526B381E090E0062E02C0880FF8
:100B5000991F0A94E2F730E08223932302C095950F
:100B600087956A95E2F7089523B381E090E0062E19
:100B700002C0880F991F0A94E2F730E08223932382
:100B800002C0959587956A95E2F7089520B381E0B4
:100B900090E0062E02C0880F991F0A94E2F730E019
:100BA0008223932302C0959587956A95E2F708956D
:100BB00080E00895823459F018F4813431F00895BA
:100BC000833439F0843439F008956BBB089568BBE1
:100BD000089565BB089562BB0895823461F118F4ED
:100BE000813441F00895833409F446C0843409F413
:100BF00064C00895413099F480B78B7F80BF2AB3D9
:100C000081E090E002C0880F991F6A95E2F7982F63
:100C1000909592239ABB9BB3892B8BBB08952BB3E2
:100C200081E090E002C0880F991F6A95E2F78095F5
:100C300082238BBB0895413099F480B78B7F80BFAE
:100C400027B381E090E002C0880F991F6A95E2F710
:100C5000982F9095922397BB98B3892B88BB0895C2
:100C600028B381E090E002C0880F991F6A95E2F7EF
:100C70008095822388BB0895413099F480B78B7F9B
:100C800080BF24B381E090E002C0880F991F6A956D
:100C9000E2F7982F9095922394BB95B3892B85BB4F
:100CA000089525B381E090E002C0880F991F6A95EE
:100CB000E2F78095822385BB0895413099F480B78F
:100CC0008B7F80BF21B381E090E002C0880F991F25
:100CD0006A95E2F7982F9095922391BB92B3892B56
:100CE00082BB089522B381E090E002C0880F991F73
:100CF0006A95E2F78095822382BB0895E199FECF41
:100D00009FBB8EBBE09A8DB30895E199FECF41154C
:100D1000510591F0460F571FFB019C01261B370B15
:100D2000B9019B012E0F3F1F3FBB2EBBE09A9DB325
:100D30009193E417F507A9F70895E199FECF9FBBBA
:100D40008EBBE09A8DB3861719F06DBBE29AE19ADB
:100D5000089541155105C9F0460F571FFB019C012D
:100D6000261B370BB901E199FECF9B012E0F3F1FC8
:100D70003FBB2EBBE09A2DB39191291719F09DBB73
:100D8000E29AE19AE417F50771F7089587B3806B4B
:100D900087BB8DB181658DB908958FB9779BFECFE3
:100DA0008FB108958EE48CBF83B7886083BF83B70B
:100DB0008F7B83BF83B7816083BF83B78D7F83BF02
:100DC00083B7846083BF789489B7826089BF0895B0
:100DD00083B78E7F83BF83B78D7F83BF83B78B7FBE
:080DE00083BF0895F894FFCFD2
:100DE8003738392F3435362A3132332D41303D2BBF
:100DF8004C6F67696E20666F720066697273742043
:100E080074696D65005365742041646D696E207066
:100E18006173730041646D696E20706173733A0089
:100E28005061737320536176656400536573736909
:100E38006F6E2054696D656F7574004C6F67696ECD
:100E480020626C6F636B656400776169742032306F
:100E5800207365636F6E64730053656C65637420FB
:100E68006D6F6465203A00303A41646D696E200008
:100E780057726F6E6720696E7075742E0041646DCD
:100E8800696E206D6F646500456E746572205061EF
:100E980073733A00526967687420706173730057FE
:100EA800726F6E67205061737300547269657320A6
:100EB8006C6566743A00313A526F6F6D3120323A80
:100EC800526F6F6D3200333A526F6F6D3320005797
:100ED800726F6E6720696E70757400526F6F6D3136
:100EE80020533A00526F6F6D3220533A00526F6FA1
:100EF8006D3320533A004F4E004F464600312D4F78
:0E0F08006E20322D4F666620302D524554006B
:00000001FF
